{
  "_format": "hh3-artifact-1",
  "contractName": "Raffle",
  "sourceName": "contracts/Raffle.sol",
  "abi": [
    {
      "inputs": [
        {
          "internalType": "uint256",
          "name": "_entranceFeeUsd",
          "type": "uint256"
        },
        {
          "internalType": "address",
          "name": "_dataFeed",
          "type": "address"
        }
      ],
      "stateMutability": "nonpayable",
      "type": "constructor"
    },
    {
      "inputs": [
        {
          "internalType": "int256",
          "name": "answer",
          "type": "int256"
        }
      ],
      "name": "Raffle__InvalidDataFeedAnswer",
      "type": "error"
    },
    {
      "inputs": [
        {
          "internalType": "uint256",
          "name": "sent",
          "type": "uint256"
        },
        {
          "internalType": "uint256",
          "name": "feePrice",
          "type": "uint256"
        }
      ],
      "name": "Raffle__NotEnoughFeeSent",
      "type": "error"
    },
    {
      "inputs": [
        {
          "internalType": "address",
          "name": "sender",
          "type": "address"
        }
      ],
      "name": "Raffle__OnlyOwner",
      "type": "error"
    },
    {
      "anonymous": false,
      "inputs": [
        {
          "indexed": true,
          "internalType": "address",
          "name": "sender",
          "type": "address"
        },
        {
          "indexed": false,
          "internalType": "uint256",
          "name": "amount",
          "type": "uint256"
        },
        {
          "indexed": false,
          "internalType": "uint256",
          "name": "totalAmount",
          "type": "uint256"
        }
      ],
      "name": "RaffleEntered",
      "type": "event"
    },
    {
      "anonymous": false,
      "inputs": [
        {
          "indexed": false,
          "internalType": "uint256",
          "name": "oldFee",
          "type": "uint256"
        },
        {
          "indexed": false,
          "internalType": "uint256",
          "name": "newFee",
          "type": "uint256"
        }
      ],
      "name": "RaffleEntranceFeeUpdated",
      "type": "event"
    },
    {
      "inputs": [],
      "name": "enter",
      "outputs": [],
      "stateMutability": "payable",
      "type": "function"
    },
    {
      "inputs": [],
      "name": "getFeePriceEth",
      "outputs": [
        {
          "internalType": "uint256",
          "name": "price",
          "type": "uint256"
        }
      ],
      "stateMutability": "view",
      "type": "function"
    },
    {
      "inputs": [],
      "name": "getRandomWinner",
      "outputs": [],
      "stateMutability": "nonpayable",
      "type": "function"
    },
    {
      "inputs": [],
      "name": "i_owner",
      "outputs": [
        {
          "internalType": "address",
          "name": "",
          "type": "address"
        }
      ],
      "stateMutability": "view",
      "type": "function"
    },
    {
      "inputs": [],
      "name": "s_entranceFee",
      "outputs": [
        {
          "internalType": "uint256",
          "name": "",
          "type": "uint256"
        }
      ],
      "stateMutability": "view",
      "type": "function"
    },
    {
      "inputs": [
        {
          "internalType": "uint256",
          "name": "",
          "type": "uint256"
        }
      ],
      "name": "s_playersList",
      "outputs": [
        {
          "internalType": "address",
          "name": "",
          "type": "address"
        }
      ],
      "stateMutability": "view",
      "type": "function"
    },
    {
      "inputs": [
        {
          "internalType": "address",
          "name": "",
          "type": "address"
        }
      ],
      "name": "s_playersMap",
      "outputs": [
        {
          "internalType": "uint256",
          "name": "",
          "type": "uint256"
        }
      ],
      "stateMutability": "view",
      "type": "function"
    },
    {
      "inputs": [],
      "name": "s_state",
      "outputs": [
        {
          "internalType": "enum Raffle.State",
          "name": "",
          "type": "uint8"
        }
      ],
      "stateMutability": "view",
      "type": "function"
    },
    {
      "inputs": [],
      "name": "s_totalBalance",
      "outputs": [
        {
          "internalType": "uint256",
          "name": "",
          "type": "uint256"
        }
      ],
      "stateMutability": "view",
      "type": "function"
    },
    {
      "inputs": [],
      "name": "testFeePriceEth",
      "outputs": [
        {
          "internalType": "uint80",
          "name": "roundId",
          "type": "uint80"
        },
        {
          "internalType": "int256",
          "name": "answer",
          "type": "int256"
        },
        {
          "internalType": "uint256",
          "name": "startedAt",
          "type": "uint256"
        },
        {
          "internalType": "uint256",
          "name": "updatedAt",
          "type": "uint256"
        },
        {
          "internalType": "uint80",
          "name": "answeredInRound",
          "type": "uint80"
        }
      ],
      "stateMutability": "view",
      "type": "function"
    },
    {
      "inputs": [
        {
          "internalType": "uint256",
          "name": "_val",
          "type": "uint256"
        }
      ],
      "name": "updateEntranceFee",
      "outputs": [],
      "stateMutability": "nonpayable",
      "type": "function"
    }
  ],
  "bytecode": "0x60c06040525f805460ff1916815560035534801561001b575f5ffd5b5060405161084338038061084383398101604081905261003a91610055565b6004919091553360a0526001600160a01b031660805261008f565b5f5f60408385031215610066575f5ffd5b825160208401519092506001600160a01b0381168114610084575f5ffd5b809150509250929050565b60805160a05161077e6100c55f395f818161018e015261023301525f81816102e9015281816103700152610486015261077e5ff3fe60806040526004361061009a575f3560e01c8063b1a969ce11610062578063b1a969ce14610132578063bdd6d8ff14610169578063dba6335f1461017d578063e97dcb62146101b0578063f5daf221146101b8578063f9122e6014610203575f5ffd5b806341e3e6d61461009e5780634244b0da146100dc5780636694f1a5146100fd57806386fe91c714610108578063a2eaacac1461011d575b5f5ffd5b3480156100a9575f5ffd5b506100c96100b8366004610515565b60016020525f908152604090205481565b6040519081526020015b60405180910390f35b3480156100e7575f5ffd5b506100fb6100f6366004610542565b610228565b005b3480156100fb575f5ffd5b348015610113575f5ffd5b506100c960035481565b348015610128575f5ffd5b506100c960045481565b34801561013d575f5ffd5b5061015161014c366004610542565b6102bd565b6040516001600160a01b0390911681526020016100d3565b348015610174575f5ffd5b506100c96102e5565b348015610188575f5ffd5b506101517f000000000000000000000000000000000000000000000000000000000000000081565b6100fb61044e565b3480156101c3575f5ffd5b506101cc61047f565b6040805169ffffffffffffffffffff968716815260208101959095528401929092526060830152909116608082015260a0016100d3565b34801561020e575f5ffd5b505f5461021b9060ff1681565b6040516100d39190610559565b336001600160a01b037f00000000000000000000000000000000000000000000000000000000000000001614610278576040516311b5f78360e31b81523360048201526024015b60405180910390fd5b600480549082905560408051828152602081018490527fe6f9e5334412bac3644e1e11ced8b739bc0deb678fdc7e400135df3de22b2d18910160405180910390a15050565b600281815481106102cc575f80fd5b5f918252602090912001546001600160a01b0316905081565b5f5f7f00000000000000000000000000000000000000000000000000000000000000006001600160a01b031663feaf968c6040518163ffffffff1660e01b815260040160a060405180830381865afa158015610343573d5f5f3e3d5ffd5b505050506040513d601f19601f82011682018060405250810190610367919061059d565b5050509150505f7f00000000000000000000000000000000000000000000000000000000000000006001600160a01b031663313ce5676040518163ffffffff1660e01b8152600401602060405180830381865afa1580156103ca573d5f5f3e3d5ffd5b505050506040513d601f19601f820116820180604052508101906103ee91906105eb565b90505f82136104135760405163736ec7a360e11b81526004810183905260240161026f565b61041e81600a610704565b6104289083610712565b60045461043d90670de0b6b3a7640000610731565b6104479190610712565b9250505090565b33345f6104596102e5565b60405163029886a960e31b8152600481018490526024810182905290915060440161026f565b5f5f5f5f5f7f00000000000000000000000000000000000000000000000000000000000000006001600160a01b031663feaf968c6040518163ffffffff1660e01b815260040160a060405180830381865afa1580156104e0573d5f5f3e3d5ffd5b505050506040513d601f19601f82011682018060405250810190610504919061059d565b945094509450945094509091929394565b5f60208284031215610525575f5ffd5b81356001600160a01b038116811461053b575f5ffd5b9392505050565b5f60208284031215610552575f5ffd5b5035919050565b602081016002831061057957634e487b7160e01b5f52602160045260245ffd5b91905290565b805169ffffffffffffffffffff81168114610598575f5ffd5b919050565b5f5f5f5f5f60a086880312156105b1575f5ffd5b6105ba8661057f565b602087015160408801516060890151929750909550935091506105df6080870161057f565b90509295509295909350565b5f602082840312156105fb575f5ffd5b815160ff8116811461053b575f5ffd5b634e487b7160e01b5f52601160045260245ffd5b6001815b600184111561065a5780850481111561063e5761063e61060b565b600184161561064c57908102905b60019390931c928002610623565b935093915050565b5f82610670575060016106fe565b8161067c57505f6106fe565b8160018114610692576002811461069c576106b8565b60019150506106fe565b60ff8411156106ad576106ad61060b565b50506001821b6106fe565b5060208310610133831016604e8410600b84101617156106db575081810a6106fe565b6106e75f19848461061f565b805f19048211156106fa576106fa61060b565b0290505b92915050565b5f61053b60ff841683610662565b5f8261072c57634e487b7160e01b5f52601260045260245ffd5b500490565b80820281158282048414176106fe576106fe61060b56fea26469706673582212206a69593285023bdcc0ffcd59ba55436e2f0d0b2e3049a45e5f6b5eef8737780064736f6c634300081c0033",
  "linkReferences": {},
  "deployedLinkReferences": {},
  "immutableReferences": {
    "88": [
      {
        "length": 32,
        "start": 745
      },
      {
        "length": 32,
        "start": 880
      },
      {
        "length": 32,
        "start": 1158
      }
    ],
    "103": [
      {
        "length": 32,
        "start": 398
      },
      {
        "length": 32,
        "start": 563
      }
    ]
  },
  "inputSourceName": "project/contracts/Raffle.sol",
  "buildInfoId": "solc-0_8_28-df5e54c7ea485b5b5959fa337c572b3637212b78"
}